{
  "_format": "hh-sol-artifact-1",
  "contractName": "AudioExchange",
  "sourceName": "contracts/AudioExchange.sol",
  "abi": [
    {
      "anonymous": false,
      "inputs": [
        {
          "indexed": false,
          "internalType": "uint256",
          "name": "id",
          "type": "uint256"
        },
        {
          "indexed": false,
          "internalType": "address",
          "name": "buyer",
          "type": "address"
        },
        {
          "indexed": false,
          "internalType": "address",
          "name": "seller",
          "type": "address"
        },
        {
          "indexed": false,
          "internalType": "uint256",
          "name": "price",
          "type": "uint256"
        }
      ],
      "name": "AudioPurchased",
      "type": "event"
    },
    {
      "anonymous": false,
      "inputs": [
        {
          "indexed": false,
          "internalType": "uint256",
          "name": "id",
          "type": "uint256"
        },
        {
          "indexed": false,
          "internalType": "address",
          "name": "owner",
          "type": "address"
        },
        {
          "indexed": false,
          "internalType": "string",
          "name": "ipfsHash",
          "type": "string"
        }
      ],
      "name": "AudioUploaded",
      "type": "event"
    },
    {
      "inputs": [
        {
          "internalType": "uint256",
          "name": "",
          "type": "uint256"
        }
      ],
      "name": "audioToOwner",
      "outputs": [
        {
          "internalType": "address",
          "name": "",
          "type": "address"
        }
      ],
      "stateMutability": "view",
      "type": "function"
    },
    {
      "inputs": [
        {
          "internalType": "uint256",
          "name": "",
          "type": "uint256"
        }
      ],
      "name": "audios",
      "outputs": [
        {
          "internalType": "address",
          "name": "owner",
          "type": "address"
        },
        {
          "internalType": "string",
          "name": "title",
          "type": "string"
        },
        {
          "internalType": "string",
          "name": "artist",
          "type": "string"
        },
        {
          "internalType": "string",
          "name": "ipfsHash",
          "type": "string"
        },
        {
          "internalType": "uint256",
          "name": "price",
          "type": "uint256"
        },
        {
          "internalType": "bool",
          "name": "isForSale",
          "type": "bool"
        }
      ],
      "stateMutability": "view",
      "type": "function"
    },
    {
      "inputs": [],
      "name": "getAudioCount",
      "outputs": [
        {
          "internalType": "uint256",
          "name": "",
          "type": "uint256"
        }
      ],
      "stateMutability": "view",
      "type": "function"
    },
    {
      "inputs": [
        {
          "internalType": "uint256",
          "name": "_id",
          "type": "uint256"
        }
      ],
      "name": "purchaseAudio",
      "outputs": [],
      "stateMutability": "payable",
      "type": "function"
    },
    {
      "inputs": [
        {
          "internalType": "string",
          "name": "_title",
          "type": "string"
        },
        {
          "internalType": "string",
          "name": "_artist",
          "type": "string"
        },
        {
          "internalType": "string",
          "name": "_ipfsHash",
          "type": "string"
        },
        {
          "internalType": "uint256",
          "name": "_price",
          "type": "uint256"
        }
      ],
      "name": "uploadAudio",
      "outputs": [],
      "stateMutability": "nonpayable",
      "type": "function"
    }
  ],
  "bytecode": "0x608060405234801561001057600080fd5b50611070806100206000396000f3fe60806040526004361061004a5760003560e01c8063641f5fbc1461004f5780638f9b737e1461007a578063cba211fa146100b7578063f26cf0c9146100f9578063ffe9100314610115575b600080fd5b34801561005b57600080fd5b5061006461013e565b6040516100719190610dd2565b60405180910390f35b34801561008657600080fd5b506100a1600480360381019061009c9190610b03565b61014a565b6040516100ae9190610cc1565b60405180910390f35b3480156100c357600080fd5b506100de60048036038101906100d99190610b03565b61017d565b6040516100f096959493929190610cdc565b60405180910390f35b610113600480360381019061010e9190610b03565b61038e565b005b34801561012157600080fd5b5061013c60048036038101906101379190610a58565b610760565b005b60008080549050905090565b60016020528060005260406000206000915054906101000a900473ffffffffffffffffffffffffffffffffffffffff1681565b6000818154811061018d57600080fd5b90600052602060002090600602016000915090508060000160009054906101000a900473ffffffffffffffffffffffffffffffffffffffff16908060010180546101d690610f82565b80601f016020809104026020016040519081016040528092919081815260200182805461020290610f82565b801561024f5780601f106102245761010080835404028352916020019161024f565b820191906000526020600020905b81548152906001019060200180831161023257829003601f168201915b50505050509080600201805461026490610f82565b80601f016020809104026020016040519081016040528092919081815260200182805461029090610f82565b80156102dd5780601f106102b2576101008083540402835291602001916102dd565b820191906000526020600020905b8154815290600101906020018083116102c057829003601f168201915b5050505050908060030180546102f290610f82565b80601f016020809104026020016040519081016040528092919081815260200182805461031e90610f82565b801561036b5780601f106103405761010080835404028352916020019161036b565b820191906000526020600020905b81548152906001019060200180831161034e57829003601f168201915b5050505050908060040154908060050160009054906101000a900460ff16905086565b60008054905081106103d5576040517f08c379a00000000000000000000000000000000000000000000000000000000081526004016103cc90610d72565b60405180910390fd5b6000818154811061040f577f4e487b7100000000000000000000000000000000000000000000000000000000600052603260045260246000fd5b906000526020600020906006020160050160009054906101000a900460ff1661046d576040517f08c379a000000000000000000000000000000000000000000000000000000000815260040161046490610d92565b60405180910390fd5b600081815481106104a7577f4e487b7100000000000000000000000000000000000000000000000000000000600052603260045260246000fd5b9060005260206000209060060201600401543410156104fb576040517f08c379a00000000000000000000000000000000000000000000000000000000081526004016104f290610d52565b60405180910390fd5b60006001600083815260200190815260200160002060009054906101000a900473ffffffffffffffffffffffffffffffffffffffff169050336001600084815260200190815260200160002060006101000a81548173ffffffffffffffffffffffffffffffffffffffff021916908373ffffffffffffffffffffffffffffffffffffffff16021790555033600083815481106105c0577f4e487b7100000000000000000000000000000000000000000000000000000000600052603260045260246000fd5b906000526020600020906006020160000160006101000a81548173ffffffffffffffffffffffffffffffffffffffff021916908373ffffffffffffffffffffffffffffffffffffffff160217905550600080838154811061064a577f4e487b7100000000000000000000000000000000000000000000000000000000600052603260045260246000fd5b906000526020600020906006020160050160006101000a81548160ff02191690831515021790555060008173ffffffffffffffffffffffffffffffffffffffff163460405161069890610cac565b60006040518083038185875af1925050503d80600081146106d5576040519150601f19603f3d011682016040523d82523d6000602084013e6106da565b606091505b505090508061071e576040517f08c379a000000000000000000000000000000000000000000000000000000000815260040161071590610db2565b60405180910390fd5b7f89ae4546456b3ebb021b56b1c083737f09b59b853b88bcf78c13cdbf71edf84b833384346040516107539493929190610ded565b60405180910390a1505050565b60008080549050905060006040518060c001604052803373ffffffffffffffffffffffffffffffffffffffff16815260200187815260200186815260200185815260200184815260200160011515815250908060018154018082558091505060019003906000526020600020906006020160009091909190915060008201518160000160006101000a81548173ffffffffffffffffffffffffffffffffffffffff021916908373ffffffffffffffffffffffffffffffffffffffff160217905550602082015181600101908051906020019061083d929190610938565b50604082015181600201908051906020019061085a929190610938565b506060820151816003019080519060200190610877929190610938565b506080820151816004015560a08201518160050160006101000a81548160ff0219169083151502179055505050336001600083815260200190815260200160002060006101000a81548173ffffffffffffffffffffffffffffffffffffffff021916908373ffffffffffffffffffffffffffffffffffffffff1602179055507f7f4877a5d15f66c929ca251e883296c941fcdabe48dbcd6329491fae2dcdb59e81338560405161092993929190610e32565b60405180910390a15050505050565b82805461094490610f82565b90600052602060002090601f01602090048101928261096657600085556109ad565b82601f1061097f57805160ff19168380011785556109ad565b828001600101855582156109ad579182015b828111156109ac578251825591602001919060010190610991565b5b5090506109ba91906109be565b5090565b5b808211156109d75760008160009055506001016109bf565b5090565b60006109ee6109e984610ea1565b610e70565b905082815260208101848484011115610a0657600080fd5b610a11848285610f40565b509392505050565b600082601f830112610a2a57600080fd5b8135610a3a8482602086016109db565b91505092915050565b600081359050610a5281611023565b92915050565b60008060008060808587031215610a6e57600080fd5b600085013567ffffffffffffffff811115610a8857600080fd5b610a9487828801610a19565b945050602085013567ffffffffffffffff811115610ab157600080fd5b610abd87828801610a19565b935050604085013567ffffffffffffffff811115610ada57600080fd5b610ae687828801610a19565b9250506060610af787828801610a43565b91505092959194509250565b600060208284031215610b1557600080fd5b6000610b2384828501610a43565b91505092915050565b610b3581610ef8565b82525050565b610b4481610f0a565b82525050565b6000610b5582610ed1565b610b5f8185610ee7565b9350610b6f818560208601610f4f565b610b7881611012565b840191505092915050565b6000610b90601083610ee7565b91507f496e73756666696369656e7420455448000000000000000000000000000000006000830152602082019050919050565b6000610bd0601483610ee7565b91507f417564696f20646f6573206e6f742065786973740000000000000000000000006000830152602082019050919050565b6000610c10601583610ee7565b91507f417564696f206973206e6f7420666f722073616c6500000000000000000000006000830152602082019050919050565b6000610c50600e83610ee7565b91507f5061796d656e74206661696c65640000000000000000000000000000000000006000830152602082019050919050565b6000610c90600083610edc565b9150600082019050919050565b610ca681610f36565b82525050565b6000610cb782610c83565b9150819050919050565b6000602082019050610cd66000830184610b2c565b92915050565b600060c082019050610cf16000830189610b2c565b8181036020830152610d038188610b4a565b90508181036040830152610d178187610b4a565b90508181036060830152610d2b8186610b4a565b9050610d3a6080830185610c9d565b610d4760a0830184610b3b565b979650505050505050565b60006020820190508181036000830152610d6b81610b83565b9050919050565b60006020820190508181036000830152610d8b81610bc3565b9050919050565b60006020820190508181036000830152610dab81610c03565b9050919050565b60006020820190508181036000830152610dcb81610c43565b9050919050565b6000602082019050610de76000830184610c9d565b92915050565b6000608082019050610e026000830187610c9d565b610e0f6020830186610b2c565b610e1c6040830185610b2c565b610e296060830184610c9d565b95945050505050565b6000606082019050610e476000830186610c9d565b610e546020830185610b2c565b8181036040830152610e668184610b4a565b9050949350505050565b6000604051905081810181811067ffffffffffffffff82111715610e9757610e96610fe3565b5b8060405250919050565b600067ffffffffffffffff821115610ebc57610ebb610fe3565b5b601f19601f8301169050602081019050919050565b600081519050919050565b600081905092915050565b600082825260208201905092915050565b6000610f0382610f16565b9050919050565b60008115159050919050565b600073ffffffffffffffffffffffffffffffffffffffff82169050919050565b6000819050919050565b82818337600083830152505050565b60005b83811015610f6d578082015181840152602081019050610f52565b83811115610f7c576000848401525b50505050565b60006002820490506001821680610f9a57607f821691505b60208210811415610fae57610fad610fb4565b5b50919050565b7f4e487b7100000000000000000000000000000000000000000000000000000000600052602260045260246000fd5b7f4e487b7100000000000000000000000000000000000000000000000000000000600052604160045260246000fd5b6000601f19601f8301169050919050565b61102c81610f36565b811461103757600080fd5b5056fea264697066735822122089b894bde382078a4573f43a37284bf6b5cd89222bdce7b610de9a6c310222a664736f6c63430008000033",
  "linkReferences": {},
  "deployedLinkReferences": {}
}